:020000040800F2
:1000000098C90224AD020008C74200080341000855
:10001000C542000869130008B15C00080000000038
:10002000000000000000000000000000E946000899
:10003000F5150008000000006B430008A147000808
:10004000C7020008C7020008C7020008C70200086C
:10005000C7020008C7020008C7020008C70200085C
:10006000C7020008C7020008C7020008C70200084C
:10007000C7020008C7020008C7020008C70200083C
:10008000C7020008C7020008C7020008C70200082C
:10009000C7020008C7020008C7020008F7150008D9
:1000A000C7020008C7020008C7020008C70200080C
:1000B000C7020008C7020008C7020008C7020008FC
:1000C000C7020008C7020008C7020008C7020008EC
:1000D000C7020008C7020008C7020008C7020008DC
:1000E000C7020008C702000800000000C70200089D
:1000F000C7020008C7020008C7020008C7020008BC
:10010000C7020008C7020008C7020008C7020008AB
:10011000C7020008C7020008C7020008C70200089B
:10012000C7020008C7020008C7020008C70200088B
:10013000C7020008C7020008C7020008C70200087B
:1001400000000000000000000000000000000000AF
:10015000C7020008C7020008C7020008C70200085B
:10016000C7020008C7020008C7020008C70200084B
:10017000C7020008C7020008C7020008000000000C
:10018000C7020008C7020008C7020008C70200082B
:10019000C7020008C7020008C7020008C70200081B
:1001A000C7020008C7020008C7020008C70200080B
:1001B000C7020008C7020008C7020008C7020008FB
:1001C000C7020008C7020008C7020008C7020008EB
:1001D000C7020008C9420008C7020008C702000899
:1001E000C7020008C7020008C7020008C7020008CB
:1001F000C7020008C7020008C7020008C7020008BB
:10020000C7020008C7020008C7020008C7020008AA
:10021000C7020008C7020008C7020008C70200089A
:10022000C7020008C7020008C7020008000000005B
:10023000C7020008C702000800000000C70200084B
:10024000C7020008C7020008C7020008C70200086A
:10025000C7020008C7020008C7020008C70200085A
:10026000C7020008C7020008C7020008C70200084A
:10027000C7020008C7020008C7020008000000000B
:10028000C702000800000000C702000800000000CC
:1002900000000000C7020008DFF80CD000F04AFAA6
:1002A000004800473D69000898C902240648804775
:1002B00006480047FEE7FEE7FEE7FEE7FEE7FEE74B
:1002C000FEE7FEE7FEE7FEE7A54700089902000803
:1002D00040EA01039B0703D009E008C9121F08C0C8
:1002E000042AFAD203E011F8013B00F8013B521E48
:1002F000F9D27047D2B201E000F8012B491EFBD2BF
:1003000070470022F6E710B513460A460446194620
:10031000FFF7F0FF204610BD10B5002200E0521C90
:10032000835C8C5CA34201D1002BF8D1D8B2E1B23E
:10033000401A10BD30B50B46014600202022012492
:1003400009E021FA02F59D4205D303FA02F5491BA3
:1003500004FA02F52844151EA2F10102F1DC30BDB9
:100360002DE9F05F0546002092469B4688460646EA
:10037000814640241BE0284641464746224600F07D
:10038000FAF953465A46C01A914110D311461846FD
:10039000224600F0E1F92D1A67EB01084F4622468C
:1003A0000120002100F0D8F917EB00094E41201E72
:1003B000A4F10104DFDC484631462A464346BDE845
:1003C000F09F2DE9FE4F804681EA0300C00F0C46E6
:1003D000009021F0004123F00045B8EB0200A94154
:1003E00005D24046214690461C460B46024623F065
:1003F0000040104347D0270DC7F30A00C3F30A514A
:100400000290401A019040286BDAC3F3130040F4C5
:10041000801B0098924620B10023D2EB030A63EBC5
:100420000B0B01985946C0F14002504600F094F978
:1004300006460D4650465946019A00F0ACF910EBBD
:1004400008006141002487EA115284EAE7731A43E5
:1004500040D0009A62B3019A012A4FEA075215DC94
:10046000001B61EB02014FF0004202EA0752CDE9A6
:100470000042001C41F5801132462B4600F0ACF9D9
:1004800003B0BDE8F08F40462146F9E7001B61EB61
:100490000201001C41F5801300185B412018A2F5F1
:1004A000001747EB030140EAD570B6196D4111E022
:1004B0006D084FEA360645EAC0754FEA0752001B41
:1004C00061EB0201001C41F5801149084FEA300040
:1004D0000019514132462B4603B0BDE8F04F00F001
:1004E0006CB90098012240000023D0EB020263EBBC
:1004F000E073009821464FEAE074B8EB000061EB2E
:100500000401E9E783F000435BE781F0004158E72D
:100510002DE9FE4F81EA030404F0004421F000417C
:1005200000944FF0000B23F0004350EA01045ED02A
:1005300052EA03045BD0C3F30A54C1F30A552C44B6
:10054000A4F2F3340194A0FB0254C1F3130141F46B
:100550008011C3F3130343F4801301FB024400FB37
:10056000034E840A970A44EA815447EA8357A4FB5E
:10057000076802958D0A05FB07854FEA932C04FB5B
:100580000C542705029D4FEA065847EA1637B5EB8B
:1005900008056EEB070C870E920E47EA811742EAB8
:1005A0008312A7FB0201B6EB0B0164EB00042B0DD9
:1005B00043EA0C335E1844EB1C50DA465146E7FB25
:1005C0000201C5F313044FEA0B3343EA14534FEA15
:1005D0000432019C43EA0603A4F10C040294009C3B
:1005E000CDE900B400F0F8F803B0BDE8F08F0020CA
:1005F0000146F9E72DE9F04D81EA030404F0004BD0
:1006000021F0004514464FF0000A23F0004150EA63
:10061000050220D054EA01021DD0C5F30A57024654
:10062000C5F31303C1F31300C1F30A5640F4801558
:1006300043F48013A7EB0608101BD64608F2FD38DA
:1006400073EB050002D308F1010801E092185B4149
:10065000B8F1000F03DA00200146BDE8F08D00205C
:100660004FF48011064684460EE0171B73EB050716
:1006700005D3121B63EB050306434CEA010C490842
:100680004FEA300092185B4150EA0107EDD152EA7F
:10069000030012D082EA040083EA0501084305D072
:1006A000101BAB4106D20122002306E000224FF0CE
:1006B000004302E06FF0010253101AEB06004CEB0E
:1006C000085110EB0A0041EB0B01BDE8F04D00F0C2
:1006D00074B8C1F30A52C1F3130140F2FF3341F47D
:1006E00080119A4202DA00200146704740F23343FB
:1006F0009A42A2F2334202DC524200F03CB800F0CF
:100700002BB8000030B5041E71F1000404DB4FF07B
:100710000044404264EB0101141E73F1000405DB48
:100720001C464FF00043524263EB0403994208BF5A
:10073000904230BD064C074D06E0E06840F00103F2
:1007400094E8070098471034AC42F6D3FFF7A8FDB1
:100750007C7100089C710008202A04DB203A00FA12
:1007600002F1002070479140C2F1200320FA03F308
:10077000194390407047202A04DB203A21FA02F006
:100780000021704721FA02F3D040C2F120029140CB
:10079000084319467047202A06DBCB17203A41FA56
:1007A00002F043EAE07306E041FA02F3D040C2F1FE
:1007B0002002914008431946704710B5141E73F18A
:1007C000000408DA401C41F1000192185B411A4311
:1007D00001D120F0010010BD2DE9F04D92469B465D
:1007E00011B1B1FA81F202E0B0FA80F22032904603
:1007F000FFF7B2FF04460F4640EA0A0041EA0B0148
:1008000053465A46084313D0114653EA010019D003
:10081000C8F140025046FFF7AEFF05460E4650466F
:1008200059464246FFF798FF084305D0012004E0EF
:1008300020463946BDE8F08D0020054346EAE076C3
:100840002C4337430A986305E40AA0EB0800002212
:10085000FD0A44EA47540A3002D500200146E9E780
:10086000010510196941DDE9084500196941BDE834
:10087000F04DA2E770B58C1810F8015B15F0070376
:1008800001D110F8013B2A1106D110F8012B03E029
:1008900010F8016B01F8016B5B1EF9D12B0705D431
:1008A0000023521E0DD401F8013BFAE710F8013B7A
:1008B000CB1A921C03E013F8015B01F8015B521E96
:1008C000F9D5A142D8D3002070BD000030B4194B37
:1008D0000029194C4FF4807106D0062828D2DFE891
:1008E00000F027191C1F2225062821D2DFE800F07E
:1008F000200305090B0D00220DE000220EE0184632
:1009000005E000220DE000220EE00022204630BC6F
:1009100000F0A4BF01224021F1E701222021EEE7EF
:1009200001224021F2E701221021E8E70122EDE750
:1009300030BC704700000258001C0258112010B54E
:1009400000F0F8FC0A2005F0C7FF6821452000F000
:10095000E3FC6821462000F0DFFC6821472000F01E
:10096000DBFC6821482000F0D7FC6821492000F01A
:10097000D3FC68214A2000F0CFFC68214B2000F016
:10098000CBFC68214C2000F0C7FC00F081FC064C39
:100990002061032005F0A0FF102000F0CBFC032015
:1009A00005F09AFF206910BDC800002470B501222F
:1009B000AD4D94022846214600F050FF40F6B83075
:1009C00005F08AFF00222146284600F047FF0A2052
:1009D00000F016FE01222146284600F03FFF0A20C3
:1009E00000F00EFE00222146284600F037FF0A20C4
:1009F00000F006FE01222146284600F02FFF0A20C3
:100A000000F0FEFD00222846611000F027FF322092
:100A100000F0F6FD112000F08DFC0A2000F0F0FD42
:100A20000122F521412000F0F7FB4FF4FA74204633
:100A300005F052FF112000F07DFC204605F04CFF30
:100A40000222D521412000F0E7FB012005F044FF00
:100A50000322D521412000F0DFFB012005F03CFFFF
:100A60000422D521412000F0D7FB012005F034FFFE
:100A70000522D521412000F0CFFB012005F02CFFFD
:100A8000D421422000F048FC012005F025FF01227E
:100A9000EE21432000F0C0FB012005F01DFF0222E3
:100AA000E021432000F0B8FB012005F015FF0322F0
:100AB000E021432000F0B0FB012005F00DFF0422EF
:100AC000E021432000F0A8FB012005F005FF0522EE
:100AD000E021432000F0A0FB012005F0FDFE0021F5
:100AE000572000F019FC012005F0F6FE00214E20F1
:100AF00000F012FC012005F0EFFEFF214D2000F078
:100B00000BFC012005F0E8FE2021552000F004FC3C
:100B1000012005F0E1FE0021562000F0FDFB012040
:100B200005F0DAFE0021442000F0F6FB012005F07C
:100B3000D3FE0122FF214D2000F06EFB012005F0C5
:100B4000CBFE0222FF214D2000F066FB012005F0C4
:100B5000C3FE0322FF214D2000F05EFB012005F0C3
:100B6000BBFE0422FF214D2000F056FB012005F0C2
:100B7000B3FE0522FF214D2000F04EFB012005F0C1
:100B8000ABFE0122FF214E2000F046FB012005F0C4
:100B9000A3FE0222FF214E2000F03EFB012005F0C3
:100BA0009BFE0322FF214E2000F036FB012005F0C2
:100BB00093FE0422FF214E2000F02EFB012005F0C1
:100BC0008BFE0522FF214E2000F026FB012005F0C0
:100BD00083FE0021512000F09FFB012005F07CFEE8
:100BE0000021522000F098FB012005F075FE002145
:100BF000532000F091FB012005F06EFE00215420EF
:100C000000F08AFB012005F067FE6521452000F019
:100C100083FB6521462000F07FFB6521472000F023
:100C20007BFB6521482000F077FB6521492000F01F
:100C300073FB65214A2000F06FFB65214B2000F01B
:100C40006BFB65214C2000F067FB00F021FB074C9B
:100C50002061032005F040FE102000F06BFB032014
:100C600005F03AFE206970BD001C0258C80000243F
:100C7000112010B500F05EFB0A2005F02DFE60216A
:100C8000452000F049FB6021462000F045FB602133
:100C9000472000F041FB6021482000F03DFB60212F
:100CA000492000F039FB60214A2000F035FB60212B
:100CB0004B2000F031FB60214C2000F02DFB00F0B8
:100CC000E7FA064C2061032005F006FE102000F034
:100CD00031FB032005F000FE206910BDC800002490
:100CE00010B503F017FC322005F0F6FD03F0D8FC38
:100CF000322005F0F1FD00F0C7FB322005F0ECFDDD
:100D000003F0B8FA322005F0E7FDFFF74FFE034C81
:100D10006061802005F0E0FD606910BDC80000241E
:100D2000112010B500F006FB0A2005F0D5FD50217A
:100D3000452000F0F1FA5021462000F0EDFA502154
:100D4000472000F0E9FA5021482000F0E5FA502150
:100D5000492000F0E1FA50214A2000F0DDFA50214C
:100D60004B2000F0D9FA50214C2000F0D5FA00F0C9
:100D70008FFA064C2061032005F0AEFD102000F034
:100D8000D9FA032005F0A8FD206910BDC800002491
:100D9000112010B500F0CEFA0A2005F09DFD60216B
:100DA000452000F0B9FA6021462000F0B5FA602134
:100DB000472000F0B1FA6021482000F0ADFA602130
:100DC000492000F0A9FA60214A2000F0A5FA60212C
:100DD0004B2000F0A1FA60214C2000F09DFA00F0B9
:100DE00057FA064C2061032005F076FD102000F034
:100DF000A1FA032005F070FD206910BDC800002491
:100E0000112010B500F096FA0A2005F065FDD421F6
:100E1000422000F081FA012005F05EFD0122EE2162
:100E2000432000F0F9F9012005F056FD0222E021EF
:100E3000432000F0F1F9012005F04EFD0222E021EF
:100E4000432000F0E9F9012005F046FD0222E021EF
:100E5000432000F0E1F9012005F03EFD0222E021EF
:100E6000432000F0D9F9012005F036FD002157207C
:100E700000F052FA012005F02FFD0122FF214D2044
:100E800000F0CAF9012005F027FD0222FF214D20C4
:100E900000F0C2F9012005F01FFD0322FF214D20C3
:100EA00000F0BAF9012005F017FD0422FF214D20C2
:100EB00000F0B2F9012005F00FFD0522FF214D20C1
:100EC00000F0AAF9012005F007FD0122FF214E20C4
:100ED00000F0A2F9012005F0FFFC0222FF214E20C4
:100EE00000F09AF9012005F0F7FC0322FF214E20C3
:100EF00000F092F9012005F0EFFC0422FF214E20C2
:100F000000F08AF9012005F0E7FC0522FF214E20C0
:100F100000F082F9012005F0DFFC2021552000F0CF
:100F2000FBF9012005F0D8FC0021562000F0F4F96F
:100F3000012005F0D1FC0021442000F0EDF9012052
:100F400005F0CAFC00214F2000F0E6F9012005F071
:100F5000C3FC0021502000F0DFF9012005F0BCFCAB
:100F60000021512000F0D8F9012005F0B5FC002146
:100F7000522000F0D1F9012005F0AEFC00215320F1
:100F800000F0CAF9012005F0A7FC6021452000F01F
:100F9000C3F96021462000F0BFF96021472000F02E
:100FA000BBF96021482000F0B7F96021492000F02A
:100FB000B3F960214A2000F0AFF960214B2000F026
:100FC000ABF960214C2000F0A7F900F061F9064C64
:100FD0002061032005F080FC102000F0ABF9032015
:100FE00005F07AFC206910BDC8000024112010B55E
:100FF00000F0A0F90A2005F06FFC6121452000F007
:101000008BF96121462000F087F96121472000F02B
:1010100083F96121482000F07FF96121492000F027
:101020007BF961214A2000F077F961214B2000F023
:1010300073F961214C2000F06FF900F029F9064C9A
:101040002061032005F048FC102000F073F9032014
:1010500005F042FC206910BDC80000242DE9F843CA
:10106000664E002240210746304600F0F7FB644AF6
:10107000642464481B2302F1FF01009402F094FEF3
:1010800001223046402100F0E9FB002230462021B9
:1010900000F0E4FB5A4A1B235A481B32009402F129
:1010A000E40102F081FE01223046202100F0D6FB4F
:1010B000554D00224021284600F0D0FB504A1B230A
:1010C00050483632009402F1C90102F06DFE01224F
:1010D0002846402100F0C2FB00223046102100F0DB
:1010E000BDFB474A1B2347485132009402F1AE0131
:1010F00002F05AFE01223046102100F0AFFB4FF4FF
:10110000807628460022314600F0A8FB3C4A1B238B
:101110003C486C32009402F1930102F045FE01223A
:101120003146284600F09AFB384C032634493046B5
:10113000A1F2C135A66163680A5C401C1B28EA5411
:1011400003F10103F8DB2E483246A6611B306360D1
:10115000815C521CE9541B2A03F10103F8DB284986
:101160003046A661363163600A5C401CEA541B2895
:1011700003F10103F8DB224A3046A66131465132C1
:101180006360565C491CEE541B2903F10103F8DB34
:101190001B4963606C31A0610A5C401CEA541B2847
:1011A00003F10103F8DBDFF8688000264FF470716B
:1011B00063608B42A06111D11648267005F040FA99
:1011C000207061686854134840F2C13104F09EFDFC
:1011D0004FF40071404600F03DFB6660012F0AD1DC
:1011E000E068401CE060B0F5FA7F04D1B9024046E7
:1011F00000F030FBE660BDE8F88300000000025814
:1012000015090024CC040024001C0258C800002446
:10121000000402585405002437B50021144682B05A
:10122000D0B2FFF753FB19486423012202A902F050
:10123000AAFC164800256423694601228DF8005057
:1012400002F0A1FC9DF8080080060FD50F4864232A
:1012500001228DF8005001A902F076FB0121E0B2D5
:10126000FFF734FB9DF8040005B030BD0748642348
:10127000012203A902F087FC052005F03BFB0121B8
:10128000E0B2FFF723FB0020EEE70000CC040024CF
:1012900070B51F4C00201F4DE0610122207F00210E
:1012A00040F02000FFF7B8FFE16902226854C8B29D
:1012B000002140F02000FFF7AFFFE1696A181076C7
:1012C000C8B20322002140F02000FFF7A5FFE1692A
:1012D0006A1882F83000C8B20422002140F02000D1
:1012E000FFF79AFFE1696A1882F84800C8B2052240
:1012F000002140F02000FFF78FFFE1696A18491CC8
:10130000182982F86000E161C7DB024870BD000067
:10131000C80000249C09002470B501240D4606462F
:10132000224629463046FFF777FF641CE4B2062CBC
:10133000F6D370BD31B5012400212046FFF7C6FA6F
:10134000084864230122694602F01DFC0A2005F0CA
:10135000D1FA01212046FFF7B9FA641CE4B2062C49
:10136000EAD338BDCC040024FEE7000010B5042801
:1013700032DD1A4C202802D021282DD11BE0CA785A
:10138000086862F31F602060087920714A796271F1
:101390008979A171014612A004F0C8FC617916A0F8
:1013A00004F0C4FCA1791BA004F0C0FC216820A0BB
:1013B00004F0BCFC10E0207808702088000A487017
:1013C0002068000C88702068000EC87020790871B1
:1013D00060794871A0798871002010BD8C020024CA
:1013E0006C696E65636F64696E672E666F726D619E
:1013F000743A25640D0A00006C696E65636F646958
:101400006E672E706172697479747970653A2564BB
:101410000D0A00006C696E65636F64696E672E6407
:10142000617461747970653A25640D0A00000000EA
:101430006C696E65636F64696E672E626974726150
:1014400074653A25640D0A0000207047034904487A
:1014500010B503F0B9FA002010BD0000D0B8022486
:10146000A802002470B50C460968054603F076F81A
:10147000044803F08BFA2168284604F01BFC002086
:1014800070BD0000A80200242DE9F041214C86B077
:10149000206840F001002060206801250226DFF866
:1014A000788000F0010005900327694670208DE8E0
:1014B000E100404600F0D4F8206840F08000206051
:1014C00020686946154C00F0800005904FF4A0702C
:1014D0008DE8E100204600F0C3F80122404640219B
:1014E00000F0BCF901224046202100F0B7F90122AA
:1014F0002046402100F0B2F901224046102100F0C0
:10150000ADF901222046110200F0A8F906B0BDE8AD
:10151000F0810000E044025800000258001C02580C
:10152000F0B5BFF34F8FBFF36F8F1D4900200860E8
:10153000BFF34F8FBFF36F8F1A4B196841F400311F
:101540001960BFF34F8FBFF36F8F1649703108607A
:10155000BFF34F8F081F43F6FF740068104D10351E
:10156000C0F34E31C0F3C90204EA4116104600BF71
:1015700046EA80772F60401EFAD2491EF4D2BFF3AC
:101580004F8F186840F480301860BFF34F8FBFF35F
:101590006F8F03484C30016841F004010160F0BDD9
:1015A00050EF00E014ED00E00F4800B587B001688F
:1015B00041F008010160006801220C49032300F09A
:1015C000080005904FF480708DE80F0008486946C8
:1015D00000F046F800220221172000F0D9F9172068
:1015E00000F0C9F907B000BDE04402580000211125
:1015F000000C025870474FF4807000F025B80000CE
:1016000070B5044600F030F90546601C02D004486D
:101610000078044400F028F9401BA042FAD370BDC2
:10162000BC0000240248016841F0010101607047DC
:1016300020040058B0F5807F03D102488068FFF78E
:101640000DBD7047C80000244FF0B04110B5D1F86F
:101650008820024203D0C1F88800FFF7EBFF10BDDD
:101660002DE9F84F6F4D00224FF001094FF0030EA6
:101670004FF00F0B0B6809FA02F803EA0803434521
:1016800074D14C68022C01D0122C0FD1D4080E69F1
:10169000570700EB8404A246246AFF0E0BFA07FCEE
:1016A000BE4024EA0C042643CAF820600F79540097
:1016B00006680EFA04FC07F0030726EA0C06A740AA
:1016C000374307604E68012E05D0022E03D0112E3D
:1016D00001D0122E0FD18668CF6826EA0C06A740EB
:1016E0003743876046680F7926EA0806C7F3001774
:1016F000974037434760C7688E6827EA0C07A640C3
:101700003E43C6604C68E40030D5474C266846F03E
:1017100002062660246822F0030606F1B04604F0B3
:10172000020400949407270FD6F80844DFF8FC80E1
:101730000BFA07FC404524EA0C0402D14FF0000CE0
:1017400041E0DFF8ECC0604502D14FF0010C3AE017
:10175000DFF8E0C0604502D14FF0020C33E0DFF863
:10176000D8C0604503D14FF0030C2CE053E0DFF804
:10177000CCC0604502D14FF0040C24E0DFF8C0C0BB
:10178000604502D14FF0050C1DE0DFF8B8C06045A0
:1017900002D14FF0060C16E0DFF8ACC0604502D174
:1017A0004FF0070C0FE0DFF8A4C0604502D14FF006
:1017B000080C08E0DFF898C0604502D14FF0090C32
:1017C00001E04FF00A0C0CFA07FC4CEA040CC6F8D6
:1017D00008C42C684E6824EA0304F60300D51C43B1
:1017E0002C606C684E6824EA0304B60300D51C43E1
:1017F0006C604FF0B0444F682668FF0226EA03068B
:1018000000D51E4326604F686668BF0226EA0306BD
:1018100000D51E436660521C102AFFF42BAFBDE8B2
:10182000F88F000080000058F4440258000002586D
:101830000004025800080258000C02580010025818
:101840000014025800180258001C025800200258C8
:101850000024025842694A40426170470AB101833C
:10186000704741837047000001488068704700005E
:10187000BC000024024881680278114481607047EE
:10188000BC000024032010B500F0A2F8002000F0F6
:1018900007F808B1012010BD00F06CF8002010BD61
:1018A00070B50D4D04464FF47A700C4A29781268D1
:1018B000B0FBF1F0B2FBF0F002F010FC48B9102CD4
:1018C00007D200222146501E00F062F800206C6012
:1018D00070BD012070BD0000BC000024B0000024D9
:1018E000F0B5154C4378211D0A1D23600378F3B130
:1018F00043680B60057BC67A817A437B2D07847B26
:1019000045EA0665C77B90F809C0067A90F800E0C2
:1019100045EAC14040EA834040EA444040EA07408B
:1019200040EA0C2040EA460040EA0E0001E00020B8
:1019300008601060F0BD000098ED00E00549054822
:1019400070300A6822F480320A60016821F00101D7
:101950000160704724ED00E0054A40F001000449B1
:1019600070321060086840F48030086070470000F2
:1019700024ED00E07047002809DB410900F01F0258
:101980008900012001F1E0219040C1F80001704779
:101990000E4BF0B41B680D46C3F30223C3F10706D8
:1019A000042E00D90426191D072901D2002300E0C6
:1019B000DB1E012404FA06F19C40491E2940641EE6
:1019C000994014402143F0BC04F0C0B90CED00E094
:1019D000064900F0070210B54FF6FF040868044BF3
:1019E000204040EA02201843086010BD0CED00E0E2
:1019F0000000FA0501680122C0F8F823886B40F462
:101A000000308863886B40F4802088630020704732
:101A100001680123C0F8F433002280F8EC238869C0
:101A2000044A40F000608861486D1043486500201A
:101A300070470000030000107047006841620020FA
:101A40007047F0B503684FF000005C6A31B19F6ADF
:101A50004D1E4FF4827604EB17440BE044EA02403B
:101A6000986210E0471C06EB800053F800C0F8B203
:101A700004EB1C44A842F5DB4FF4807000EB8100BE
:101A800044EA02421A500020F0BD0000034A01213E
:101A90001170D0F8FC0303F08AB900003902002469
:101AA000C1EBC10200EB8202D0F8FC03526C03F0E0
:101AB000F4B8C1EBC10200EB8202D0F8FC03D2F80B
:101AC000042203F03FB90000064910B50446002087
:101AD000087005A004F02AF9D4F8FC03BDE8104012
:101AE00003F067B9390200245553422044657669F2
:101AF000636520446973636F6E6E65637465642EFD
:101B00000D0A000001F07F030A4610B504460806DE
:101B1000C3EBC30004EB800101D5383101E001F5CE
:101B2000FC71D0090B70487094F8B803012809D0F3
:101B3000012084F8B803206803F0C6FC002084F874
:101B4000B80310BD022010BD70B50A460446090650
:101B500002F07F0005D5C0EBC00104EB81013831F4
:101B600005E0C2EBC20104EB810101F5FC71002527
:101B7000D2098D7008704A7094F8B803012809D012
:101B8000012084F8B803206803F061FE002084F887
:101B9000B85370BD022070BD01F00F01C1EBC1014F
:101BA00000EB8100B0F8100280B2704770B50D46AE
:101BB000044605F07F000906C0EBC00104EB81017B
:101BC00001D5383101E001F5FC71ED098A60CB7077
:101BD0004D70087000D0C880022B4FF0000500D176
:101BE0000D7194F8B803012809D0012084F8B803D6
:101BF000206803F0BBFB284684F8B85370BD022070
:101C000070BD70B501F07F050C460026C5EBC5011F
:101C100000EB8101C1F80422C1E9833681F8F96142
:101C200081F8F85101F5FC710369012B00D10A61BB
:101C30006206027C006803D003F06AFE002070BDDB
:101C400003F046FDFAE770B50D460446090605F0B7
:101C50007F0005D5C0EBC00104EB8101383105E000
:101C6000C5EBC50104EB810101F5FC710122EB0913
:101C70008A7008704B7094F8B803012807D084F874
:101C8000B823206803F015FE680602D007E00220A2
:101C900070BD217C04F56F72206803F0B9FD00204F
:101CA00084F8B80370BD2DE9F04101F07F050C46C2
:101CB0000026C5EBC501012700EB81014A64C1E99B
:101CC000133681F8397001F8385F0369012B00D1B0
:101CD0000A616206027C006804D003F019FE00204D
:101CE000BDE8F08103F0F4FCF9E700002DE9F84FBE
:101CF000044600680026054603F05FFF00287CD1FB
:101D0000206803F084FF002877D0206803F07FFF6D
:101D1000800702D5206802214161206803F077FF27
:101D200001034FF0010A04F56F704FF0080B4FF0FC
:101D30000009009076D5206803F04AFF07466FE05F
:101D4000F8076BD02068F1B203F059FF8046C00756
:101D500037D005EB4610FE4AC0F808AB296C91421B
:101D60000AD3216901291CD1D5F8081B090406D51D
:101D70004FF40041C0F8081B2169012911D1D0F8A6
:101D8000102BC6EBC60104EB8100C2F31202D0F89F
:101D900000128A1AC0F81022D0F804221144C0F8A8
:101DA00004122046F1B2FFF784FE2069012808D111
:101DB0003EB9D4F80C0220B920680121009A03F042
:101DC00027FD5FEA087017D5296CE14881420CD3E2
:101DD0002069012809D1D5F8080B000405D505EBC9
:101DE00046114FF40040C1F8080B204600F06CFB90
:101DF00005EB4611C1F808BB00E038E25FEAC860B5
:101E000004D505EB46111020C1F8080B5FEA886085
:101E100004D505EB46112020C1F8080B7F08761C7D
:101E2000002F8DD1206803F0F2FE40035DD52068BD
:101E300003F0C7FE0026074655E0F80751D020689A
:101E4000F1B203F0CCFE8046C00724D0D5F8342888
:101E500005EB46130AFA06F08243C5F83428C3F8A6
:101E600008A92069012807D1C6EBC60004EB800051
:101E7000D0E91021114441642046F1B2FFF710FE71
:101E80002069012807D136B9E06C20B9206801210A
:101E9000009A03F0BDFC5FEA087003D505EB46111C
:101EA000C1F808B95FEAC86004D505EB46111020F7
:101EB000C1F808095FEA486004D505EB46114020E7
:101EC000C1F808095FEA887004D505EB46110220C5
:101ED000C1F808095FEA086003D53146204602F0E0
:101EE000F9F97F08761C002FA7D1206803F08FFE38
:101EF000002811DAD5F8040820F00100C5F804081C
:101F000094F8EC03012838D0204600F0B1FA00BF65
:101F100020684FF000414161206803F078FE000521
:101F20000AD5D5F80808C00702D0204600F0DEFA2E
:101F300020684FF400614161206803F068FE0001F1
:101F400009D521684FF00060486194F8EC03D8B1DE
:101F5000204600F0CBFA206803F059FEC0045FD59C
:101F6000D5F8040820F00100C5F804082068102105
:101F700003F0F2FD0020FF211BE00021204684F841
:101F8000EC93FFF759FDC3E784F8ECA32068406D9C
:101F90000121C0F38300C4F8F0032046FFF74CFD95
:101FA000D9E700BF05EB4012C2F80819C2F8081BB8
:101FB000401C62688242F5D84FF0FF30C5F818081F
:101FC000D5F81C0840F00110C5F81C08206B60B162
:101FD000D5F8840840F00B00C5F88408D5F844080B
:101FE00040F00B00C5F844080BE0D5F8140840F0A9
:101FF0000B00C5F81408D5F8100840F00B00C5F820
:102000001008D5F8000820F4FE60C5F80008217C0F
:102010002068009A03F0FCFB20684FF48051416176
:10202000206803F0F4FD80047CD5206803F0DEF91D
:102030002068C16821F47051C160206803F09EFDE2
:1020400078B10321E1604020606101F047F8414A26
:10205000414902448A420AD22068C16841F4705161
:1020600058E0C4F80C904FF40071616136E03B4ACF
:102070003B4902448A4204D22068C16841F460515D
:1020800048E0384A384902448A4204D22068C1688C
:1020900041F450513EE0354A354902448A4204D267
:1020A0002068C16841F4405134E0324A3249024468
:1020B0008A4204D22068C16841F430512AE02F4A94
:1020C0002F4902448A4204D22068C16841F4205159
:1020D00020E02C492C4A0144914204D22068C16876
:1020E00041F4105116E02949294A0144914204D291
:1020F0002068C16841F400510CE0264A264910448A
:1021000088422068C16803D241F4E05102E009E04E
:1021100041F4C051C160204600F064F921684FF4D9
:1021200000504861206803F072FDC0065ED520684B
:10213000816921F010018161D5F8208008F00F013C
:10214000C8F34340C1EBC101022804EB810725E03D
:102150000A31544F405327FF00350C00401E1BFF2F
:1021600040420F0000DC0BFF804F1200808CF9FE14
:1021700020D6130060B6E5FE60E3160000D3CEFE65
:1021800040771B00C05BB3FEC091210000CA91FEE6
:1021900020753800E05459FEE09C410007F5FC77BB
:1021A00002D0062813D01CE047F6F07118EA010FA0
:1021B00017D0C8F30A12F9689046284603F02BFDA1
:1021C000B969F8684144B9614044F86009E0009990
:1021D0000822284603F01FFDB969C8F30A10084415
:1021E000B8612068816941F010018161206803F0C5
:1021F0000EFD000705D5204600F050F92168C1F812
:1022000014B0206803F003FDC00207D52046F1B2E8
:1022100000F02FF821684FF480104861206803F027
:10222000F6FC800207D52046F1B200F026F82168BE
:102230004FF400104861206803F0E9FC400006D527
:102240002046FFF723FC21684FF08040486120685A
:1022500003F0DDFC40070AD520684568680702D511
:102260002046FFF731FC2068416829434160BDE802
:10227000F88FD0F8FC0302F0E7BDD0F8FC0302F0C1
:10228000E5BD0000F0B504004FF000068BB056D05D
:10229000032084F8B903204600F062F8206803F0B8
:1022A00011FA04F11001684628220F46FEF710F8D3
:1022B00094E80F0003F0B4F82068002103F0BAFCA2
:1022C000012500223146C6EBC600761C04EB8000D7
:1022D0000F2E80F8395080F83810C18780F83B20E5
:1022E00002644264C264EDD300204FF4827300BFE5
:1022F000C0EBC00103EB800604EB810181F8F921FA
:1023000081F8F801C88781F8FB21C1F80022C1F8E3
:102310000422C1F80C2221688A51401C0F28E7D3FF
:10232000282239466846FDF7D3FF94E80F0003F0F2
:102330001BF9A06A84F8B953012803D005E00120F5
:102340000BB0F0BD2046FFF763FB606A012802D1A5
:102350002046FFF74FFB206803F0F9F80020EFE775
:1023600010B5B6B004464FF480204FF440112191CF
:102370000090684600F0FAF817492068884228D192
:102380001648016841F00101016000680DF1BC0CC4
:10239000022100F001003490002203230A244FF4AC
:1023A000C0508CE81F000E482FA9FFF759F90B48C1
:1023B0000838016841F000610160006800220121D5
:1023C00000F0006034906520FFF7E2FA6520FFF727
:1023D000D2FA36B010BD000000000840E0440258B8
:1023E0000000025870B50446C068012518B10228E3
:1023F00006D00AA005E010A003F098FC002502E03A
:1024000014A003F093FCD4F8FC0302F032FDD4F8DE
:10241000FC032946BDE8704002F05DBD55534220E3
:10242000446576696365204C696272617279202027
:102430005B46533F5D0D0A00555342204465766963
:102440006365204C69627261727920205B48535D3C
:102450000D0A000055534220446576696365204C9F
:1024600069627261727920205B46535D0D0A00003B
:1024700010B5044604A003F059FCD4F8FC03BDE8F1
:10248000104002F016BD0000446576696365205275
:102490006573756D65640D0A00000000D0F8FC03DB
:1024A00002F00DBD10B5044690F8B803012809D01C
:1024B000012084F8B803206803F0D2FB002084F8E0
:1024C000B80310BD022010BDD0F8FC2300F56F71D9
:1024D000104602F00FBD10B50446006803F02BF85B
:1024E000206803F023FB002010BD0000064910B552
:1024F00004460020087005A003F018FCD4F8FC0383
:10250000BDE8104002F02FBD390200244465766911
:10251000636520496E2073757370656E64206D6FFE
:1025200064652E0D0A0000000248016841F08071C8
:10253000016070470C48025810B500F0E9FD0849E9
:102540004FF480730A6893FAA3F3064902F47062A9
:10255000B3FA83F3DA40044B9A5CD040086010BDB4
:1025600018440258B0000024466D00082DE9FC5FB5
:102570000446FE4D50F8241B0026DFF8F49337463E
:102580000090080123D5606E50B1B0F5801F0CD0CB
:10259000B0F5001F11D0B0F5401F23D0012615E083
:1025A000286840F4003028601CE0286840F40010DF
:1025B0002860201D01F0DAFE06E0286840F08070F7
:1025C0002860009801F03CFF06000BD037462088B9
:1025D000C00529D5606D052824D2DFE800F00C1174
:1025E00019212100626ED9F8001021F44011114325
:1025F000C9F80010EBE7286840F4003028600FE0CD
:10260000286840F400202860201D01F0AFFE06E09D
:10261000286840F480002860009801F011FF064609
:102620006EB100E001263743208880052ED5A06DCD
:10263000802821D00CDC90B140280ED114E0626DCE
:10264000D9F8001021F007011143C9F80010EBE799
:10265000C02819D0B0F5807F16D0012615E0286873
:1026600040F4003028600FE0286840F40020286023
:10267000201D01F07BFE06E0286840F48000286001
:10268000009801F0DDFE064696B137432088DFF85A
:10269000E082400508F1080832D5D4F8A400B0F56E
:1026A000800F23D00DDCA0B1B0F5001F0FD115E0D5
:1026B000A26DD9F8001021F4E0711143C9F800109F
:1026C000E4E7B0F5C00F19D0B0F5000F16D0012621
:1026D00015E0286840F4003028600FE0286840F4D6
:1026E00000202860201D01F041FE06E0286840F42B
:1026F00080002860009801F0A3FE064676B13743BB
:102700002088000533D5D4F8A800B0F1007F24D08C
:102710000EDCA8B1B0F1807F10D116E0D4F8A4206F
:10272000D8F8001021F460011143C8F80010E7E761
:10273000B0F1407F19D0B0F1806F16D0012615E0BE
:10274000286840F4003028600FE0286840F400203A
:102750002860201D01F00AFE06E0286840F4800091
:102760002860009801F06CFE06466EB13743206881
:10277000800122D5A06CF0B110280FD0202812D0F3
:10278000302818D0012617E0D4F8A820D8F8001077
:1027900021F0E0611143C8F80010E8E7286840F430
:1027A0000030286007E0286840F400102860201DF1
:1027B00001F0DCFD06466EB137432088C00431D5F8
:1027C000E06DB0F5005F23D00DDCA0B1B0F5805F07
:1027D0000FD115E06648A26C001F016821F030019E
:1027E00011430160E9E7B0F5405F19D0B0F5804FC3
:1027F00016D0012615E0286840F4003028600FE06C
:10280000286840F400202860201D01F0AFFD06E09C
:10281000286840F480002860009801F011FE064608
:1028200086B13743208880042FD5206EB0F5403F15
:1028300029D010DC38B3B0F5803F14D0B0F5003F9C
:102840000FD118E0E26DD9F8001021F4E0411143F6
:10285000C9F80010E6E7B0F5802F14D0B0F5A02F2E
:1028600011D0012610E0286840F480102860201D57
:1028700001F07CFD06E0286840F400002860009824
:1028800001F0DEFD06468EB137432088400430D586
:10289000D4F8AC00B0F1405F29D010DC38B3B0F10F
:1028A000805F14D0B0F1005F0FD118E0226ED9F82C
:1028B000001021F4E0211143C9F80010E5E7B0F160
:1028C000804F14D0B0F1A04F11D0012610E028683D
:1028D00040F480102860201D01F048FD06E02868C3
:1028E00040F400002860009801F0AAFD06466EB191
:1028F00037432088000422D5E06EF0B1B0F1805F4C
:102900000ED0B0F1005F10D0012617E0D4F8AC2053
:10291000D8F8001021F0E0411143C8F80010E8E7B2
:10292000286840F40030286007E0286840F48010F0
:102930002860201D01F01AFD06466EB1374320685D
:10294000C00126D5606C10B3012813D0022816D020
:1029500003281CD001261BE0E26ED9F8001021F0FC
:1029600040511143C9F80010E9E700002C44025817
:1029700050440258286840F40030286007E0286876
:1029800040F400102860201D01F0F0FC064676B1EE
:1029900037432068DFF8F4B340021FD5FC480168D4
:1029A00041F480710160FEF75FFF824610E0F74856
:1029B000626C3C30016821F0030111430160E8E7DB
:1029C000FEF752FFA0EB0A00642801D9032604E0B9
:1029D000EF480068C005F3D58EB137432078DFF8A3
:1029E000ACA3C0070AF1440A78D0A06F182873D0AE
:1029F0005CDCC8B308285FD010285BD164E0DFF846
:102A00008CA3B4F8B0100AF1600ADAF8000001F4FF
:102A1000407100F44070884211D0DAF80010DAF802
:102A2000002021F4407142F48032CAF80020DAF824
:102A3000002022F48032CAF80020CAF80010D4F82E
:102A4000B000B0F5807F14D1FEF70EFF01900CE0CE
:102A5000FEF70AFF0199411A41F28830814204D9F8
:102A6000032647F00307B9E736E0DAF800008007ED
:102A7000EED5D4F8B010C1F30120032858460DD08C
:102A8000016821F47C510160B4F8B020DAF800103C
:102A9000C2F30B021143CAF800109FE7BD4A036856
:102AA00002EA111223F47C511143ECE7202813D0E1
:102AB000282811D0012610E0286840F480102860F2
:102AC000201D01F053FC06E0286840F40000286057
:102AD000009801F0B5FC06465EB1374320788007C8
:102AE00024D5606F06281FD2DFE800F01C0C141CF0
:102AF0001C1CA26FDAF8001021F038011143CAF84B
:102B00000010EBE7286840F480102860201D01F0D9
:102B10002DFC06E0286840F400002860009801F0D1
:102B20008FFC064676B100E0012637432078400747
:102B300025D5D4F8900006281FD2DFE800F01C0C41
:102B4000141C1C1C626FDAF8001021F007011143FD
:102B5000CAF80010EAE7286840F480102860201DB9
:102B600001F004FC06E0286840F4000028600098AA
:102B700001F066FC06469EB100E00126374320784E
:102B8000800631D5D4F88C00B0F1405F2AD011DC3A
:102B900040B3B0F1805F15D0B0F1005F10D119E003
:102BA000D4F89020D8F8001021F007011143C8F89C
:102BB0000010E4E7B0F1804F14D0B0F1A04F11D075
:102BC000012610E0286840F400202860201D01F054
:102BD000CDFB06E0286840F080702860009801F086
:102BE0002FFC06468EB137432078400631D5D4F805
:102BF0009800B0F5406F2AD011DC40B3B0F5806F7B
:102C000015D0B0F5006F10D119E0D4F88C20DAF8A7
:102C1000001021F0E0411143CAF80010E4E7B0F5DC
:102C2000805F14D0B0F5A05F11D0012610E02868B5
:102C300040F400202860201D01F098FB06E0286881
:102C400040F080702860009801F0FAFB06468EB1D3
:102C500037432078000631D5D4F89C00B0F5C04F3A
:102C60002AD011DC40B3B0F5005F15D0B0F5804F2D
:102C700010D119E0D4F89820D8F8001021F4E051D0
:102C80001143C8F80010E4E7B0F5004F14D0B0F5D8
:102C9000204F11D0012610E0286840F40020286061
:102CA000201D01F063FB06E0286840F0807028607A
:102CB000009801F0C5FB064666B33743207800074D
:102CC0000BD5D4F88010B1F5805F2DD0DAF8002054
:102CD00022F440520A43CAF800202078C0060BD5DF
:102CE000D4F89410B1F5807F26D0D8F8002022F4D3
:102CF00040720A43C8F800202068000336D5D4F893
:102D0000A00008B3B0F5803F26D0B0F5003F2BD02F
:102D100001262AE0D4F89C20D8F8001021F4604164
:102D20001143C8F80010C9E7009801F089FB286832
:102D300040F080702860D0E7009801F081FB28689F
:102D400040F080702860D7E7286840F400202860B1
:102D5000201D01F00BFB06E0286840F08070286021
:102D6000009801F06DFB0646B6B13743206840037A
:102D70002BD5D4F88400B0F5801F17D0B0F5001F14
:102D800019D0B0F5401F1ED001261DE01044025896
:102D900000480258CFFFFF00D4F8A020D8F8001058
:102DA00021F440311143C8F80010DFE7286840F4EF
:102DB0000030286007E0286840F400002860009890
:102DC00001F03EFB064656B137432068C0031FD5CD
:102DD000E06C70B1B0F5803F10D0012617E0D4F858
:102DE0008420DAF8001021F440111143CAF80010D1
:102DF000EBE7286840F40030286007E0286840F4DA
:102E000000102860201D01F0B1FA0646DEB13743FC
:102E10002068800007D5286840F0807028600098FE
:102E200001F00EFB0743206880031AD5E06FB0B1B4
:102E3000B0F5807F0FD0B0F5007F10D0B0F5407FA7
:102E40000DD001260CE02D48E26C016821F48031A0
:102E500011430160DCE7286840F400302860EEB3DD
:102E600037432068C00207D5226FD9F8001021F03F
:102E700000411143C9F800102068C00008D5D4F8FB
:102E8000B420DBF8001021F480411143CBF800108E
:102E90002068800207D5A26ED9F8001021F0807159
:102EA0001143C9F80010206840000CD5DBF8001071
:102EB00021F40041CBF80010DBF80010D4F8B82062
:102EC0001143CBF800102068002806DA0B48226D69
:102ED000016821F040511143016000E003E05FB15F
:102EE0000120BDE8FC9FE26FDAF8001021F4407188
:102EF0001143CAF80010B4E70020F2E74C4402582E
:102F00002DE9F047DFF8C49104460E46D9F80000D9
:102F100000F00700B0420CD2D9F8001021F00701F0
:102F20003143C9F80010D9F8000000F00700B042A2
:102F300072D12078DFF89881800707D5E268D8F849
:102F4000001021F00F011143C8F800102078C007CD
:102F500067D05F49A368D8F80020183922F470625E
:102F60001A43C8F80020606802281CD003281DD02E
:102F7000096801281DD04907002963DA544D083D2E
:102F8000296821F0070101432960FEF76DFC6168A3
:102F9000074641F28830022914D0032920D00129A4
:102FA00082462AD039E009688903E5E70968890182
:102FB000E2E7C905E0E700BFFEF756FCC11B51453B
:102FC00001D926E082462868C0F3C2000228F3D166
:102FD00027E000BFFEF748FCC11B514501D918E0AE
:102FE00082462868C0F3C2000328F3D119E000BF6D
:102FF000FEF73AFCC11B51450BD82868C0F3C2004C
:103000000128F5D10DE000BFFEF72EFCC11B514594
:1030100003D90320BDE8F08714E0286810F0380FCA
:10302000F2D1D9F80010484601F00701B1420BD99E
:10303000016821F0070131430160006800F00700DA
:10304000B04201D00120E5E72078400707D522698A
:10305000D8F8001021F070011143C8F80010217851
:103060001B48001D090705D56269016821F0700140
:10307000114301602178C90605D5A269016821F4D0
:10308000E061114301602078800607D51048E269AD
:103090000830016821F070011143016000F038F838
:1030A000D8F800104FF4807292FAA2F201F4706125
:1030B000B2FA82F2D140074A515CC8400649086022
:1030C0000020FEF7EDFB0020A4E7000000200052E6
:1030D00018440258466D0008B000002410B5FFF7F0
:1030E0002BFA084901230A6893FAA3F3064902F070
:1030F0000F02B3FA83F3DA40044B9A5CD0400860C5
:1031000010BD000018440258B4000024466D0008A9
:103110004749F0B547480968454B103B11F0380462
:1031200009D00111082C04D0434A102C0BD0182CC4
:103130000BD00846F0BD19688906FBD51968C1F3A4
:10314000C101C840F0BD1046F0BD394CDFF8E0C009
:103150001834261D0CF1240C2768351D2468DFED7A
:10316000370AB7EE001A3668DCF800C017F003071C
:1031700006F00106C4F30514CCF3CC0C1CFB06F6D8
:1031800000EE106AB8EE400A09D0012F01D0022FDC
:103190003BD02868B1FBF4F1C0F308003AE01968AD
:1031A000890615D51A682968C2F3C102C1F308015E
:1031B000D04001EE901AB0FBF4F0F8EE611A40EE48
:1031C000201A00EE100A71EE810AB8EE400A0BE0F8
:1031D0002968B0FBF4F0C1F3080101EE901AB8EED3
:1031E000612A01EE900A1BE020EE200A2868C0F355
:1031F0004620401C00EE900AF8EE600A80EE201A8D
:10320000BCEEC10A10EE100AF0BD2868B2FBF4F162
:10321000C0F3080001EE900AB8EE612A01EE901AA0
:1032200000EE202AB8EE610A72EE010ADCE7000027
:10323000104402580090D00340787D01000000390E
:103240002DE9F05FFD4C0546007841F28838DFF843
:10325000EC93103CF94FC00709F118094CD03868BD
:10326000C0F3C20002281AD03868C0F3C200032895
:1032700005D1D9F8000000F0030002280FD06868DB
:10328000B0F5803F12D010B1B0F5A02F18D0206853
:1032900020F480302060206820F4802009E020683D
:1032A000800329D5686800286CD025E0206840F4A8
:1032B00080302060686890B1FEF7D6FA06460AE0D2
:1032C000206840F480202060F0E700BFFEF7CCFAD1
:1032D000811B414575D820688003F7D50CE0FEF7C7
:1032E000C3FA064605E000BFFEF7BEFA811B414562
:1032F000F0D820688003F7D42878D04E0C3E8007A1
:1033000069D538684FF47C3B10F0380F13D038681B
:10331000C0F3C200032803D1D9F8000080070AD007
:10332000E86870B3216821F0190101432160FEF7BC
:103330009BFA82462EE02068400702D5E868002804
:10334000B2D0E968206820F0190008432060FEF739
:103350008BFA824606E000BFFEF786FAA0EB0A0071
:103360000228B7D820684007F6D5296932689BFA49
:10337000ABF0B0FA80F0814022F47C30084330603A
:1033800029E016E0BEE000BFFEF76EFAA0EB0A00EF
:1033900002289FD820684007F6D5286932689BFA32
:1033A000ABF1B1FA81F1884022F47C310143316004
:1033B00011E0206820F001002060FEF755FA8246F7
:1033C00006E0EFE0FEF750FAA0EB0A0002288FD8E3
:1033D00020684007F6D42878C00647D538684FF0F3
:1033E000F84BC0F3C200012815D03868C0F3C20002
:1033F000032805D1D9F8000000F0030001280AD005
:10340000E8690028206822D040F080002060FEF7A4
:103410002BFA82460CE02068C0050CD5E8698028AC
:1034200070D108E0FEF720FAA0EB0A00022898D835
:103430002068C005F6D5286A32689BFAABF1B1FA6C
:1034400081F1884022F0F841014331600EE020F024
:1034500080002060FEF708FA064604E0FEF704FA52
:10346000801B022895D82068C005F7D4287800076B
:1034700029D572486969643000298246016811D0F3
:1034800041F001010160FEF7EFF9064605E000BFDB
:10349000FEF7EAF9801B022899D8DAF800008007C5
:1034A000F6D510E021F001010160FEF7DDF90646D6
:1034B00005E000BFFEF7D8F9801B022872D8DAF8C1
:1034C00000008007F6D42878800625D5A869002852
:1034D000206810D040F480502060FEF7C5F9064601
:1034E00005E000BFFEF7C0F9801B02285AD820680B
:1034F0008004F7D510E020F480502060FEF7B4F986
:10350000064606E0D4E000BFFEF7AEF9801B0228B5
:1035100048D820688004F7D4287840074DD5DFF8D4
:1035200020A1DAF8001041F48071CAF80010FEF70B
:103530009BF9064605E000BFFEF796F9801B64285C
:1035400030D8DAF80000C005F6D53C4EA8686036E1
:1035500001280AD008B1052811D0306820F00100F8
:103560003060306820F0040002E0306840F0010074
:103570003060A86890B1FEF777F982460AE03068BB
:1035800040F004003060F0E7FEF76EF9A0EB0A01AE
:10359000414507D830688007F6D50EE0FEF764F99C
:1035A000824607E083E000BFFEF75EF9A0EB0A0168
:1035B00041457CD830688007F6D4686AE8B339683A
:1035C000C1F3C201032973D00228206820F0807063
:1035D000206003D0FEF748F9054683E0FEF744F982
:1035E000064604E0FEF740F9801B022877D82068E1
:1035F0008001F7D4EB6A40F2F332D9F800104FF4AF
:10360000FE0755F8286F914341EA03113143C9F889
:103610000010287B4FF0FE4C084EB5F808804002A1
:103620002B8A20362A7DA8F10108311DA0F50070F3
:1036300080B25B1EC8F3080804E056E0104402584C
:1036400000480258521E07EA034340EA08000CEA09
:1036500002674FF6F8721843384330600B6892FAED
:10366000A2F72E6AB7FA87F722489343BE40334346
:103670000B600168AA6921F00C0111430160016827
:10368000EA6921F0020111430160016841F48031CF
:103690000160016841F400310160016841F480215A
:1036A0000160016841F001010160206801E016E05D
:1036B0001DE040F080702060FEF7D6F8054604E07B
:1036C000FEF7D2F8401B022809D820688001F7D500
:1036D0000BE000BFFEF7C8F8401B022802D9032008
:1036E000BDE8F09F20688001F4D40020F8E70120B5
:1036F000F6E700002C4402582DE9F05F04004FF07B
:1037000000093ED0764D2068DFF8D8A1A66AA8420D
:10371000DFF8D4B106D0504504D0584502D0E16856
:103720000F292ED8E1680127E26B0B46083107EB21
:103730005217CA087A43A84205D0504503D05845CD
:1037400001D0082A1DD86649884203D0504501D0CF
:10375000584501D1102A14D8B6F5800F14D160490C
:10376000884207D0504505D0584503D0206BB0F5AE
:10377000702F06D8206B00B918048146B3EB194F9F
:1037800002D90120BDE8F09F94F8810028B90020FB
:1037900084F88000204600F0A9F8022084F8810017
:1037A0002068016821F001010160A069B0F1806F1B
:1037B0000AD16068B0F5800F06D1A06B20B92068EF
:1037C000016841F480510160A26AE069E16B2568FB
:1037D0001043E36841EA090108431843A860616A9D
:1037E000D4E90D06D4F810C00843226AD4E90513C1
:1037F000D4E91275D4F800801E43304340EA0C002F
:10380000D4F858C00843D4E901361043184328437C
:103810003043384340EA0C00C8F80C00A06AB0F509
:10382000800F2AD1206C01282068016828D021F45B
:1038300000410160606C01282068016823D021F4F8
:103840008041016026492068884206D0504504D056
:10385000584502D0B9F5702F18D0884203D0504592
:1038600001D0584502D1B9F5F81F0FD0016821F4F5
:10387000005101602168E06A0864606850B119E095
:1038800041F40041D5E741F48041DAE7016841F4B1
:103890000051EEE7A06A30B92068816821F4C05178
:1038A00041F4006181602068816821F4C06141F4C5
:1038B000806181602068016D21F00101016560680F
:1038C000400206D52068626DC16821F000411143B5
:1038D000C1600020C4F88400012184F8811051E700
:1038E0000030014000380040003C004000B587B087
:1038F00014216846FCF705FD1148016841F4804138
:103900000160006800F4804005900D4808380168A7
:1039100041F00201016000680DF1080C4FF46041B4
:1039200000F002000590022003220523CDE90010DB
:103930008CE80D0003486946FDF792FE07B000BD14
:10394000E8440258000402582DE9F84F0446406844
:103950001D461646B0F5800F0F464FF0040A01D100
:10396000A06888B194F88000012817D04FF00109B1
:1039700084F88090FDF778FF94F88110834600204A
:1039800001290DD0022124E084F881A02046009373
:1039900013460A4600F008FABDE8F88F0220FBE75C
:1039A000B7B1AEB1A26880466766A4F8686084F8D3
:1039B00081A0C4F88400A4F86A60E065A4F86000FF
:1039C000A4F86200B2F5C02F2067606705D009E057
:1039D000012184F880000846DEE72068016821F4B0
:1039E0000061016020684FF4800741686FF30F01A8
:1039F000314341602068016841F001010160606865
:103A0000B84204D12068016841F400710160E068A7
:103A10000F282CD948F20806B4F86A00002855D0BF
:103A20002068416931420BD0006B616E0860606EA6
:103A3000001D6066B4F86A00401EA4F86A00EBE757
:103A40003DB1681CE8D0FDF70FFFA0EB0B00A842CA
:103A5000E2D3204600F094FDD4F8842084F88080DE
:103A600042F48071C4F8841084F8819087E00728BC
:103A700028D865E02068416911F4604F18D0416989
:103A8000090409D5006B616E0860606E001D6066F8
:103A9000B4F86A00801E08E0008E616E0880606ED7
:103AA000801C6066B4F86A00401EA4F86A0009E051
:103AB000002DCED0681C05D0FDF7D6FEA0EB0B0084
:103AC000A842C6D2B4F86A000028D3D13CE02068EE
:103AD000416911F4604F29D04169090409D5006B8F
:103AE000616E0860606E001D6066B4F86A00001FB9
:103AF00019E0416901F4C041B1F5005F09D9008EB8
:103B0000616E0880606E801C6066B4F86A00801E7A
:103B100009E090F83000616E0870606E401C6066CD
:103B2000B4F86A00401EA4F86A0009E0002D90D0A5
:103B3000681C05D0FDF798FEA0EB0B00A84288D2C8
:103B4000B4F86A000028C2D1A06AB8420DD10022A0
:103B50005B4608212046009500F081FD28B1D4F88D
:103B6000840040F02000C4F88400204600F008FDE6
:103B700084F88190D4F8841084F8808009B1012001
:103B80000AE7002008E72DE9F84F044690F8800086
:103B90001D461746012889460DD04FF0010884F8CC
:103BA0008080FDF761FE824694F88100002601289E
:103BB00004D002201EE00220BDE8F88FB9F1000F0A
:103BC00017D0B7B1A1680320C4F85C90A4F8607066
:103BD00084F88100C4F88460A4F862706666A4F872
:103BE0006860A4F86A60B1F5C02F6667266704D0E4
:103BF00008E0012084F88060DEE72068016841F475
:103C000000610160206841686FF30F013943416032
:103C10002068016841F0010101606068B0F5800F23
:103C200004D12068016841F400710160E0680F2848
:103C300027D82BE02068416989070BD5E16D096819
:103C40000162E06D001DE065B4F86200401EA4F85A
:103C5000620016E03DB1681C13D0FDF705FEA0EB35
:103C60000A00A8420DD3204600F08AFCD4F8841044
:103C700084F8806041F48071C4F8841084F88180F5
:103C800090E0B4F862000028D4D171E007282AD867
:103C90006AE02068416989071BD5B4F862100129E0
:103CA0000BD9E16B49B1E16D09680162E06D001D5E
:103CB000E065B4F86200801E08E0E16D09880184C7
:103CC000E06D801CE065B4F86200401EA4F862005C
:103CD00009E0002DC7D0681C05D0FDF7C5FDA0EB9D
:103CE0000A00A842BFD2B4F862000028D1D13FE058
:103CF0002068416989072DD5B4F8621003290CD9D1
:103D0000E16B402909D9E16D09680162E06D001D90
:103D1000E065B4F86200001F19E0B4F862100129F0
:103D20000BD9E16B49B1E16D09880184E06D801C1C
:103D3000E065B4F86200801E09E0E16D097880F862
:103D40002010E06D401CE065B4F86200401EA4F84D
:103D5000620009E0002D86D0681C05D0FDF784FDC7
:103D6000A0EB0A00A842BDD2B4F862000028BFD17F
:103D70000022534608212046009500F070FC28B12F
:103D8000D4F8840040F02000C4F88400204600F0FD
:103D9000F7FB84F88180D4F8840084F880600028E0
:103DA0003FF42AAF012007E72DE9F84F044690F8C9
:103DB00080001E4692460A9D01288B4613D04FF084
:103DC000010984F88090FDF74FFD94F881200746A3
:103DD0000020012A4FF480010ED062688A4209D186
:103DE000A2683AB902E00220BDE8F88F94F8812079
:103DF000042A01D0022136E0BBF1000F32D0BAF123
:103E0000000F2FD076B394F88120042A02D0052227
:103E100084F881208046C4F88400C4F864A0A4F823
:103E20006A60A4F86860C4F85CB0A4F86260A4F8A2
:103E3000606020676067206842686FF30F0232435A
:103E400042602068026842F00102026060688842B5
:103E500004D12068016841F400710160E0680F2816
:103E600041D849E0012184F880000846BCE700BF42
:103E7000B4F8620070B12068416989070AD5E16D24
:103E800009680162E06D001DE065B4F86200401E43
:103E9000A4F86200B4F86A0080B1206848F2080211
:103EA000416911420AD0006B616E0860606E001DAE
:103EB0006066B4F86A00401EA4F86A00681C12D05C
:103EC000FDF7D2FCC01BA8420DD3204600F058FBE2
:103ED000D4F8842084F8808042F48071C4F884107F
:103EE00084F88190EAE0B4F862000028C0D1B4F808
:103EF0006A000028BCD1C9E007284AD8BEE000BF4C
:103F0000B4F86200F0B12068416989071AD5B4F8A5
:103F1000621001290BD9E16B49B1E16D09680162B9
:103F2000E06D001DE065B4F86200801E08E0E16D00
:103F300009880184E06D801CE065B4F86200401ED1
:103F4000A4F86200B4F86A00E0B12068416911F495
:103F5000604F17D04169090409D5006B616E086094
:103F6000606E001D6066B4F86A00801E08E0008E76
:103F7000616E0880606E801C6066B4F86A00401E46
:103F8000A4F86A00681C04D0FDF76EFCC01BA842B0
:103F90009BD2B4F862000028B2D1B4F86A000028BD
:103FA000AED173E0B4F8620080B32068416989073C
:103FB0002CD5B4F8621003290CD9E16B402909D93A
:103FC000E16D09680162E06D001DE065B4F8620012
:103FD000001F19E0B4F8621001290BD9E16B49B157
:103FE000E16D09880184E06D801CE065B4F8620031
:103FF000801E09E0E16D097880F82010E06D401C1A
:10400000E065B4F86200401EA4F86200B4F86A00EB
:1040100068B32068416911F4604F28D041690904F0
:1040200009D5006B616E0860606E001D6066B4F8B3
:104030006A00001F19E0416901F4C041B1F5005F59
:1040400009D9008E616E0880606E801C6066B4F8CD
:104050006A00801E09E090F83000616E0870606EA2
:10406000401C6066B4F86A00401EA4F86A00681C30
:1040700004D0FDF7F9FBC01BA84289D2B4F8620056
:1040800000288FD1B4F86A0000288BD100223B466B
:1040900008212046009500F0E2FA28B1D4F8840007
:1040A00040F02000C4F88400204600F069FA84F84B
:1040B0008190D4F8841084F8808009B1012093E6BF
:1040C000002091E604284FF0E020016903D021F0A0
:1040D00004010161704741F00401FAE7401EB0F1AC
:1040E000807F10B501D3012010BD4FF0E024606146
:1040F0000F21601701F02AFE0020A0610721216135
:1041000010BDFEE7F0B500230A251C4630263727F0
:1041100011E000BFB5EB107F02D906EB107C01E087
:1041200007EB107C01F813C001EB430C00015B1C92
:104130008CF80140DBB29342ECD3F0BD144810B5CB
:1041400086B0016841F00201016000680322114C51
:104150004FF4E06100F0020005900120CDE9020279
:10416000CDE9001069462046FDF77AFA0122204683
:104170009102FDF773FB012220465102FDF76EFB11
:10418000012220461102FDF769FB06B010BD0000B8
:10419000E044025800040258032300221921580762
:1041A00010B500F014F8122103230122480600F094
:1041B00037F8182103230222C80600F008F8032369
:1041C0001B211A46BDE81040C807AFF300802DE957
:1041D000FF411C4615460E460746FDF7AFFB002083
:1041E0008DF808608DF80C0001218DF809008DF81C
:1041F0000D008DF800108DF80A008DF80E0068464D
:104200008DF8015001978DF80B408DF80F10FDF7D8
:1042100067FB0420FDF7A0FB04B00020BDE8F0819F
:104220002DE9FF411C4615460E460746FDF786FB65
:1042300000208DF8086001218DF80C008DF8090030
:104240008DF80D108DF800108DF80A008DF80E1005
:104250008DF8015001978DF80B408DF80F006846DE
:10426000FDF73EFB0420FDF777FB04B00020BDE81E
:10427000F0810000F0B4124807224FF480060F4F7F
:104280000021B500C0E90212AC0084611307C0E947
:104290000415C0E90731416222018162C162C0E9AF
:1042A0000D21C163016441648164C164016541659C
:1042B0008165C0E90076F0BCFFF71EBA0038004007
:1042C000CC040024FEE770470148FDF70FBD000055
:1042D00040B202242DE9F84F0F4606688246C1EB32
:1042E000C70100EB8105D5E91312286C38358C1A0B
:1042F000A04200D20446E01C06EB4719C11700EBB0
:1043000091704FEAA00819E0AA68441AA24200D2AC
:104310001446E01CA3B2C117FAB200EB91704FEA49
:10432000A0089AF8100000903046E96801F0AAFC55
:10433000E8682044E860A8692044A861D9F8180911
:1043400081B2414505D9D5E90501814201D2002854
:10435000DAD1002C06DCD6F834180120B8408143AD
:10436000C6F834180020BDE8F88F70472DE9F047F3
:10437000324E04464FF000093068C043800709D030
:104380002E4D283D286820F080602860FDF76CFAEB
:10439000074608E00120BDE8F08700BFFDF764FA9A
:1043A000C01B022843D828680001F7D42068316870
:1043B0004FF4FE0721F47C3141EA00303060217A6D
:1043C0004FF0FE4CA389B4F8048049021B4E1B48F1
:1043D0005B1E227CA8F101081036001DA1F50071BA
:1043E00089B2521EC8F3080807EA034341EA0801EC
:1043F00019430CEA0262114331600168626921F0DD
:10440000C001114301600168A26921F0200111433C
:104410000160286840F080602860FDF725FA0446B6
:1044200007E000BFFDF720FA001B022801D9032096
:10443000B1E728680001F5D54846ACE728440258A2
:104440002DE9F047324E04464FF000093068C04372
:10445000800709D02E4D283D286820F08050286024
:10446000FDF702FA074608E00120BDE8F08700BF2B
:10447000FDF7FAF9C01B022843D828688000F7D45A
:10448000208831684FF4FE0721F07C7141EA00502A
:104490003060217A4FF0FE4CA389B4F804804902C1
:1044A0001B4E1B485B1E227CA8F101081836001D1C
:1044B000A1F5007189B2521EC8F3080807EA034348
:1044C00041EA080119430CEA0262114331600168B4
:1044D000626921F44061114301600168A26921F41D
:1044E000007111430160286840F080502860FDF79A
:1044F000BBF9044607E000BFFDF7B6F9001B022830
:1045000001D90320B1E728688000F5D54846ACE71B
:10451000284402580F4830B587B0016841F0800147
:104520000160006801AB02210B4D00F08000059096
:10453000012003224FF48064009483E80700694659
:104540002846FDF78DF8002221462846FDF786F91A
:1045500007B030BDE0440258001C02582022BFF3CF
:104560004F8F064B02E0891A186010440029FADCCC
:10457000BFF34F8FBFF36F8F7047000068EF00E00D
:1045800010B5026840F26B335169946944F0080435
:1045900094610268946944F010049461026814689C
:1045A00024F001041460026814699C4314610268D9
:1045B000936823F44043936090F88120042A0CD040
:1045C0008A060AD5D0F8842042F08002C0F8842000
:1045D0000268936943F02003936190F88120032AD5
:1045E0001DD04A060AD5D0F8842042F00402C0F853
:1045F00084200268936943F040039361826AB2F5B4
:10460000800F0CD10A060AD5D0F8842042F00202AD
:10461000C0F884200268936943F0800393618A059F
:104620000AD5D0F8842042F00102C0F88420026844
:10463000936943F400739361C9050AD5D0F88410D7
:1046400041F00801C0F8841001688A6942F4807260
:104650008A610021A0F86210A0F86A1010BD2DE94F
:10466000F041984616460D460746069C0BE0601C36
:1046700009D02CB1FDF7F8F8A0EB0800A04202D950
:104680000320BDE8F0813868406935EA000004D0B5
:104690000020B042EBD00020F3E70120F9E7000052
:1046A0000F4830B587B0016841F0800101600068B3
:1046B00001AB02210B4D00F0800005900120032288
:1046C0004FF40074009483E8070069462846FCF71D
:1046D000C7FF002221462846FDF7C0F807B030BDCD
:1046E000E0440258001C025870470000F0B52A4C04
:1046F0009DB0256825F004052560274D0C35002464
:104700002E6846F440462E602E6806F440461B96FE
:104710002E68B604FCD54FF0010E0394CDE906E4F3
:104720000DF1300E1294082502260996CDE9105499
:104730008EE80D004FF4803C68462127CDE90A61E0
:10474000CDE9007CFEF77CFD00B1FEE7402017902C
:104750003F210301032250261A96CDE9180313AB1B
:1047600013A883E836000221FEF7CAFB00B1FEE77A
:104770000A48016841F0800101600848F43001688E
:1047800041F002010160006800F002001B90FCF79C
:1047900049FF1DB0F0BD00000C480258004402580B
:1047A000FDF768B81D4AF0B51D49146800201C4B80
:1047B00044F47004146010330A681A4C42F0010289
:1047C0000A6018600D68164A25400D601832131DE6
:1047D0001C1D134D1060283518602A1D2060131D04
:1047E0001C1D2860251D10602A1D1860131D2060E7
:1047F0001C1D28601060186020600A680124084BA6
:10480000064FE606084D6033803F22F480220A609E
:104810001860C5F808413E60F0BD000088ED00E07A
:10482000004402587FEDF6EA00800051D0F81802EB
:1048300020B10021C0F814120846704702207047CA
:1048400070B5D0F81842054600F0BEFAC4F80C0264
:10485000D5F8180248B1D5F81C0204F50371C268F6
:10486000D4F804029047002070BD022070BD70B5DE
:1048700000250446812100F009FA0121204600F0BC
:1048800005FA8221204600F001FAD4F8180258B146
:10489000D4F81C0204F506744068804721680020A3
:1048A00002F02EFA00202060284670BD10B5D0E935
:1048B000864159B194F80002FF2807D08B68214641
:1048C00094F801229847FF2084F80002002010BDD0
:1048D0000A210180004870472801002443210180FB
:1048E0000048704778010024432101800048704748
:1048F000340100244321018000487047BC0100249A
:104900002DE9F0410446007C4FF400764FF000059D
:1049100078B3402320460222812100F099FA4023F7
:1049200020460222012100F093FA082320460322A8
:10493000822100F08DFA00204FF4077102F0ECF9AB
:10494000C4F81802F0B10746D4F81C02006880478A
:104950000020C7F81402C7F81802207CD7F80422F8
:1049600090B140232046012100F07CFA2846BDE8A2
:10497000F081FFE7022233468121204600F068FAE9
:104980003346CDE70125F1E73346EBE710B5D0F824
:10499000181269B1027C002AD1F8042205D0402304
:1049A000012100F05FFA002010BD4FF40073F7E71B
:1049B000022010BD002902464FF0020003D04FF044
:1049C0000000C2F81C127047D0F81802C0F8041298
:1049D00000207047D0F81802C0F81022C0F8081262
:1049E0000020704770B5064608780C4610F060014C
:1049F000D6F8185222D0202928D1E288B2B1000678
:104A000008D5D6F81C022946836860789847E28862
:104A1000294618E06078294685F80002A07985F8D3
:104A200001023046E28800F04FF80FE0D6F81C0291
:104A30000022214683686078984707E060780A285A
:104A400004D103490122304600F058F8002070BD1F
:104A50002401002410B5D0F8181289B1D1F814221D
:104A60000AB1012010BD0122C1F81422B1F81032A0
:104A7000D1F8082281219BB200F07EFA002010BDFF
:104A8000022010BD10B5D0F81422526890470020C3
:104A900010BD13460A46002110B500F0E3F90020CE
:104AA00010BD13460A46002110B500F065FA00203B
:104AB00010BD10B58021044600F047FA2046BDE83D
:104AC0001040002100F041BA10B5C0F808210323BE
:104AD000C0F8F4311346C0F80C210A46002100F05A
:104AE000C1F9002010BD0521002310B51A46C0F8F9
:104AF000F411194600F0B6F9002010BD10B582611E
:104B00000223C0F8F4311346C2610A46002100F0C6
:104B100033FA002010BD0421002310B51A46C0F856
:104B2000F411194600F028FA002010BDF8B504462B
:104B300048880D46010A08294BD2DFE801F04A04F3
:104B400009174A4A4048D4F81012207C0A6832E01B
:104B5000207C02260028D4F8140205D0C16A6846D9
:104B600088470146467041E0816AF8E7C0B20628EE
:104B70002FD2DFE800F003080D12171CD4F8101232
:104B8000207C4A6817E0D4F81012207C8A6812E072
:104B9000D4F81012207CCA680DE0D4F81012207CE2
:104BA0000A6908E0D4F81012207C4A6903E0D4F8BE
:104BB0001012207C8A6969469047014616E0207CE5
:104BC00038B9D4F81402416B68468847F5E7207C71
:104BD00020B129462046FFF76CFFF8BDD4F8140237
:104BE000016B68468847014607204870BDF8000001
:104BF0000028F2D0EA88002AEFD0824200D902468B
:104C00002046ADF80020FFF779FFF8BDF0B5002889
:104C10004FF000041DD00346254602E06D1C5B1CCE
:104C2000EDB21E78002EF9D1022606EB450717805B
:104C3000631C032500260F55A21CCD5406E0541C0E
:104C40008B54E2B2531C401C8E54DAB20378002B12
:104C5000F5D1F0BD10B580B1D0F8143213B10023F6
:104C6000C0F8143209B1C0F810120121027080F8A6
:104C7000FC1100F0ADF8002010BD022010BD10B5F1
:104C8000D0F82002FCF760FF002010BD10B5D0F86E
:104C90002002FCF737FF002010BD2DE9F041174638
:104CA000044641B1D4F8140242698AB394F8FC0175
:104CB000032842D043E0D4F8F411002504F1140095
:104CC000022933D1D0E902639E4207D9F31A39464B
:104CD0009AB283602046FFF7E4FE12E04068B0FB22
:104CE000F3F103FB1101A1B9984212D3D4F8F811E2
:104CF00088420ED2002220461146FFF7D2FEC4F8A9
:104D0000F85100231A461946204600F0ABF80DE092
:104D100012E0D4F81402C16829B194F8FC01032808
:104D200001D1204688472046FFF7DDFE94F80002B7
:104D3000012804D184F8005201E020469047002069
:104D4000BDE8F08170B51546044641B1D4F81402AF
:104D500082693AB394F8FC01032824D025E0D4F802
:104D6000F41104F5827003291FD1D0E902218A428F
:104D70000BD9531A83600846834200D30346294661
:104D80009AB22046FFF785FE0FE0D4F814020169BD
:104D900029B194F8FC01032801D120468847204618
:104DA000FFF7B9FE01E020469047002070BD0020CB
:104DB000704710B5012180F8FC11D0F81422017958
:104DC00052689047002010BDD0F82002FCF7E4BEE6
:104DD0001449002270B54024114E0A6302234C612D
:104DE00008250A62C1E90632CA62CB608A62C1F84C
:104DF000FC03C1E90065C0F820120846FDF742FA3D
:104E000008488021FCF719FE064840220021FCF7E3
:104E100018FE044880220121FCF713FE002070BD1B
:104E20000000084040B20224D0F8202201F07F00A8
:104E30000B06C0EBC00002EB800002D590F83A00F0
:104E4000704790F8FA0170470020704700207047C3
:104E500010B51C46D0F8200213462246FCF7A6FEE9
:104E6000002010BD10B5D0F82002FCF7CAFE0020CB
:104E700010BD70B50022044640231146FFF7E8FF3D
:104E80004025204600222B468021C4F81051FFF710
:104E9000DFFFD4F818020121256284F8FC1130B13B
:104EA000D4F8141220794A68C1B2204690470020F5
:104EB00070BD90F8FD1180F8FC110020704710B50E
:104EC00090F8FC11032904D1D0F81412C96901B17A
:104ED0008847002010BD017400207047044B012258
:104EE00010B51A70D0F82002FDF7DCFA002010BDD2
:104EF0003902002470B5044600F50270054600F042
:104F000042F8B4F80E32012194F8080210F01F02A2
:104F1000C4E97D130AD0012A0DD0022A10D000F076
:104F20008001204600F011F8002070BD294620467F
:104F300000F091F8F8E72946204600F074F9F3E70D
:104F40002946204600F000F9EEE710B5D0F820021F
:104F5000FCF779FE002010BD10B5D0F82002FDF757
:104F6000BAFA002010BD90F8FC21042180F8FD2140
:104F700080F8FC110020704710B5D0F82002FCF733
:104F800092FE002010BD0A7802704A784270CB78F9
:104F90008A7802EB032242804B790A7902EB0322E2
:104FA00082808A79C97902EB0121C180704702466B
:104FB0004FF0000011B1C2F8141270470220704780
:104FC00010B5D0F8142202241AB11268904700B923
:104FD0000024204610BD000070B51B4D04468878A3
:104FE0000E46C1B20129297028D894F8FC01022884
:104FF00002D0032822D105E099B16160032084F832
:10500000FC0109E091B1606888420AD0C1B2204633
:10501000FFF738FD297861602046FFF7D1FF0228AD
:105020000CD02046BDE87040FFF775BD02206160DE
:1050300084F8FC012046FFF725FDF2E731462046C3
:10504000BDE87040FFF735BD3802002410B5FFF70A
:1050500083FF002010BD2DE9F0414B78002201258F
:1050600016460A2B43D2DFE803F03C58425142086F
:1050700005422A27FFF75AFD63E004468888C8B92D
:10508000C888B8B98A7894F8FC0102F07F07032831
:1050900010D03946204684F8FE71FFF71FFF2046E6
:1050A000FFF739FD1FB1022084F8FC0149E084F8C4
:1050B000FC5146E020461AE0FFF78EFF41E0CB8826
:1050C000012B14D190F8FC31022B02D0032B0ED10E
:1050D00004E000F108018260012214E00122011DB8
:1050E00011E090F8FC21022A04D0032A02D0FFF735
:1050F000E0FC26E0D0F80412C56009B10321C160CC
:10510000022200F10C01FFF7F9FC1AE04A8804467C
:10511000012A16D1C4F804520BE0044690F8FC01B1
:10512000022801D00328C5D14888012809D1C4F834
:105130000422D4F814028268204690472046FFF7E4
:10514000EAFC3046BDE8F08170B50D4609780446AA
:1051500000262879C1F34112012AC1B206D068782D
:10516000A0B301281FD003283FD107E0D4F81402D0
:105170002946826820469047002070BD94F8FC01C3
:10518000022817D003282CD1688828B921B180299A
:1051900002D02046FFF7D9FED4F8140229468268CF
:1051A0002046904713E094F8FC01022802D003281F
:1051B00017D103E0C9B180291BD116E06888A0B9D6
:1051C000480604D02046FFF75AFDE5E703E02046F5
:1051D000FFF7A1FC09E094F8FC01022807D003289E
:1051E0000BD029462046FFF764FC304670BD4806C8
:1051F000FBD02046FFF7A9FEF7E7080601F07F0085
:1052000004EB001501D5143501E005F58275204643
:10521000FFF70AFE00B1012029460222286020463D
:10522000FFF76CFCE1E770B5054690F8FC010C4611
:1052300003280DD1207901280AD8D5F814028268F4
:1052400028469047E08830B92846FFF764FC02E022
:105250002846FFF72EFC002070BD000004A00A467F
:10526000024910B5FFF7D2FC004810BD40B6022439
:1052700056435020436F6E66696700001220088015
:10528000004870475C02002404A00A46024910B599
:10529000FFF7BCFC004810BD40B602245643502026
:1052A000496E7465726661636500000004200880C1
:1052B000004870475802002404A00A46024910B56D
:1052C000FFF7A4FC004810BD40B6022453544D69BA
:1052D00063726F656C656374726F6E6963730000EF
:1052E0000A46054910B528B104A000BFFFF78EFC9F
:1052F000014810BD0AA0F9E740B6022453544D33CB
:1053000032205669727475616C20436F6D506F72F4
:105310007420696E204653204D6F646500000000C4
:1053200053544D3332205669727475616C20436F4B
:105330006D506F727420696E204853204D6F646504
:105340000000000010B51A200880074906240C2030
:105350000822FEF7D7FE0449042220461031FEF74A
:10536000D1FE0148801E10BD7002002470B54C783B
:105370000D7801221C4B012C02FA05F2D0F81C48D2
:1053800018D044EA0242C0F81C280A7800EB421008
:10539000D0F8002B12040BD40A89CC78D0F8001B6B
:1053A000C2F30A0243EA844311431943C0F8001BC5
:1053B000002070BD92B21443C0F81C480A7800EB7C
:1053C0004210D0F800492404F2D40C89CD78D0F8EA
:1053D0000019C4F30A06AC04314344EA8252114373
:1053E0001943C0F80019E3E700800010D0F8001955
:1053F0006FF30A01C0F80019D0F80818C1F3410191
:10540000022905D1D0F8001941F00301C0F80019B4
:10541000D0F8041841F48071C0F8041800207047D7
:1054200070B50446049D06990D9801290CD0E068DA
:1054300040F04000E060204600F02AF84FF4803051
:10544000A063012D17D01EE0A26B1049012822F4A1
:105450008030A063E06800EA0100E060E06820F4CA
:105460004010E06003D1E06840F48010E060204626
:1054700000F00EF8E5E7A06840F00C00A060A0681E
:1054800040F02000A060002070BD0000BFFFBDFF05
:105490000C49012202E0521C8A420BD80369002BFE
:1054A000F9DA0369012243F00103036104E0521CAD
:1054B0008A4201D9032070470369DB07F7D1002036
:1054C00070470000400D030010B54B780C780122A6
:1054D000012B02FA04F3D0F83C4816D024EA034327
:1054E000C0F83C38D0F81C380C78A24023EA0242BD
:1054F000C0F81C28097800EB4110D0F8001B21F4FB
:105500000041C0F8001B002010BD9BB29C43C0F8B6
:105510003C48D0F81C380C78A24092B29343C0F8B3
:105520001C38097800EB4110D0F8001921F4004133
:10553000C0F80019E7E710B5D0F8041821F002010F
:10554000C0F804180320FCF75BF8002010BD10B56C
:10555000D0F8041841F00201C0F804180320FCF749
:105560004FF8002010BD00002DE9F0470E4604461C
:10557000DDE90A1ADDF83C80089F826B5FEA0800CB
:1055800042F400104FF00005A0630BD1A06B20F493
:105590000010A063206840F040002060206840F0C8
:1055A000800020604FF00009C4F8009ED4F8000885
:1055B0000129C4F8000804D0D4F8000840F0030022
:1055C00004E0D4F800080BB140F00100C4F8000872
:1055D0001021204600F0C0FA204600F0ADFA4846FF
:1055E0004FF0FF314FF09043FF22C4F81098C4F8F9
:1055F0001498C4F81818C4F81C9810E004EB45116E
:10560000D1F800C9BCF1000F02DAC1F8003901E09D
:10561000C1F80009C1F81009C1F808296D1CAE4293
:10562000ECD8002111E000BF04EB4115D5F800CB08
:10563000BCF1000F02DAC5F8003B01E0C5F8000B31
:10564000C5F8100BC5F8082B491C8E42ECD8D4F8CD
:105650001018012F21F48071C4F810180AD11549CF
:10566000154AC4F83018D4F830181143C4F830186B
:10567000D4F830186FF08041A06161611FB9A06952
:1056800040F01000A061A0690C4ABAF1000F40EA96
:105690000200A06103D0A06940F00800A061B8F149
:1056A000010F03D1A06906490843A0610020BDE8AD
:1056B000F0870000000400020300010800383C806D
:1056C00004000040816821F00101816000207047E2
:1056D00030B54D780B784D4C00EB4313012D29D09C
:1056E000D3F8105B6FF31205C3F8105B0B7800EB77
:1056F0004313D3F8105B2540C3F8105B4B690BB123
:105700008B684B610B78012A00EB4312D2F8103BF7
:1057100043F40023C2F8103B0A7800EB42128C6875
:10572000D2F8103BC4F3120443EA0403C2F8103B5E
:105730005BD060E04D69002DD3F810593AD06FF37B
:105740001205C3F810590B7800EB4313D3F8105926
:105750002540C3F810594C698B689C4200D94B61B5
:105760000B7800EB4313D3F8104944F40024C3F83A
:1057700010490B7800EB43134C69C4F31205D3F8BE
:1057800010492C43C3F81049012A27D04A693AB17D
:105790000C78D0F834280123A3401A43C0F83428E9
:1057A000097800EB4110D0F8001941F00441C0F82D
:1057B000001929E02540C3F810590B7800EB43137A
:1057C000D3F8104944F40024C3F810490B7800EBD7
:1057D0004313D3F810496FF31204D3E70A7800EBB0
:1057E00042120B69C2F81439DAE70B7800EB431365
:1057F000CA68C3F8142B097800EB4110D0F8001BDD
:1058000041F00441C0F8001B002030BDFFFF07E05D
:1058100000230129C0F8103BD0F8101B41F40021EF
:10582000C0F8101BD0F8101B41F01801C0F8101B75
:10583000D0F8101B41F0C041C0F8101B05D14FF04B
:105840008021C0F8142BC0F8001B002070474A7854
:105850000B78012A00EB43120BD0D2F8003B23F463
:105860000013C2F8003BCA78032A17D0022A15D0C9
:105870001DE0D2F8003923F40013C2F80039CA78C9
:10588000032A01D0022A12D1097800EB4110D0F886
:10589000001941F08051C0F8001908E0097800EBC8
:1058A0004110D0F8001B41F08051C0F8001B0020CF
:1058B00070474A780B78012A00EB431214D0D2F8D3
:1058C000003B002B05DBD2F8003B23F08043C2F8FD
:1058D000003B097800EB4110D0F8001B41F40011A7
:1058E000C0F8001B00207047D2F80039002B05DB00
:1058F000D2F8003923F08043C2F80039097800EB70
:105900004110D0F8001941F40011C0F80019E9E77E
:10591000F8B54B780E786FF06045834C012B00EBA7
:1059200046132FD0D3F8106B6FF31206C3F8106B29
:105930000B7800EB4313D3F8106B2640C3F8106BC1
:105940004C69002C7ED00F788B68E61800EB47146A
:10595000761EB6FBF3F39BB2D4F8106B05EAC34591
:105960002E43C4F8106B0D788C685C4300EB451334
:10597000D3F8105BC4F312042543C3F8105B012A6B
:1059800073D0B2E04E6966B3D3F810696FF31206B4
:10599000C3F810690B7800EB4313D3F81069264065
:1059A000C3F810690B784E698C68264400EB4313EA
:1059B000761EB6FBF4F4D3F8106905EAC444344308
:1059C000C3F810490B7800EB43134C69C4F312057C
:1059D000D3F810492C43C3F81049CB78012B16D0CB
:1059E00027E0D3F810592540C3F810590B7800EB85
:1059F0004313D3F8104944F40024C3F810490B783A
:105A000000EB4313D3F810496FF312040FE00B7847
:105A100000EB4313D3F8104924F0C044C3F81049F5
:105A20000B7800EB4313D3F8104944F00054C3F84B
:105A30001049012A12D0CB78012B17D04B692BB318
:105A40000D7800E036E0D0F834380124AC40234330
:105A5000C0F83438CB78012B08D017E00C7800EB75
:105A600044140B69C4F81439F4E738E0D0F8083866
:105A7000DB050B7800EB4313D3F8004902D444F064
:105A8000005401E044F08054C3F800490B7800EB67
:105A90004313D3F8004944F00444C3F80049CB78D9
:105AA000012B3ED100928B8A0A78C9689BB200F024
:105AB000E9F836E00B7800EB43138D68D3F8104B10
:105AC000C5F312052C43C3F8104B0B7800EB4313BE
:105AD000D3F8104B44F40024C3F8104B4FE70B7875
